:0300000002097F73
:0C097F00787FE4F6D8FD7581140208F6BC
:09098B00039F250D994941010962
:1008F600780C7C007D007BFF7A09798B7E007F096E
:100906001208D0E4F590F508F509E4F50AF50B753B
:10091600A001740C250912095175A002740C250B4F
:10092600120951050BE50B7002050AC3940AE50A84
:100936006480948040D90509E50970020508C394CE
:0B0946000AE5086480948040C180B87E
:08095100F8E6F5907F647E00DA
:10095900E4FDFCC3ED9FEE6480F8EC6480985015CB
:10096900E4FBFA0BBB00010AEB64324A70F50DBDDA
:0509790000010C80DE0E
:01097E002256
:10080000E709F608DFFA8046E709F208DFFA803EDA
:1008100088828C83E709F0A3DFFA8032E309F608C7
:10082000DFFA8078E309F208DFFA807088828C832F
:10083000E309F0A3DFFA806489828A83E0A3F608E3
:10084000DFFA805889828A83E0A3F208DFFA804CBD
:1008500080D280FA80C680D4806980F28033801094
:1008600080A680EA809A80A880DA80E280CA8033FD
:1008700089828A83ECFAE493A3C8C582C8CCC58375
:10088000CCF0A3C8C582C8CCC583CCDFE9DEE78045
:100890000D89828A83E493A3F608DFF9ECFAA9F0C4
:1008A000EDFB2289828A83ECFAE0A3C8C582C8CC1A
:1008B000C583CCF0A3C8C582C8CCC583CCDFEADE33
:1008C000E880DB89828A83E493A3F208DFF980CC95
:1008D00088F0EF60010E4E60C388F0ED2402B4048E
:1008E0000050B9F582EB2402B4040050AF23234535
:0608F00082239008507302
:00000001FF
