:03000000020AAA47
:0C0AAA00787FE4F6D8FD75812002092356
:100A990048455820444F574E20436F756E74657210
:010AA900004C
:060AC000120A6DC2A32220
:1009230078087C007D007BFF7A0A79997E007F112D
:100933001208D0120A41120A757B007A0079081254
:070943000A0E7FC0120AB684
:06094A00751900751A0F7B
:10095000E51960030209E6E51AB410004003020934
:10096000E6900968F828287302099802099D02098F
:10097000A20209A70209AC0209B10209B60209BB29
:100980000209C00209C50209CA0209CF0209D4023C
:1009900009D90209DE0209E3751B308049751B3154
:1009A0008044751B32803F751B33803A751B348041
:1009B00035751B358030751B36802B751B378026AF
:1009C000751B388021751B39801C751B418017757C
:1009D0001B428012751B43800D751B448008751BDC
:1009E000458003751B46AF1B120AC67F647E00124A
:0709F0000A797FC0120AB66C
:1009F700E51A151A70021519C3E519648094804029
:070A07000302095002094A35
:100A41007F38120AB6120A757F01120AB6120A75A8
:100A51007F06120AB6120A757F0C120AB6120A75BF
:0C0A61007F80120AB67F0F7E00020A7927
:0A0AB6008F90C2A1120A71C2A322A0
:060AC600120A6DC2A3221A
:060A0E008B1C8A1D891EED
:100A1400E4F51FF520AB1CAA1DA91E852082851FA5
:100A2400831208F6FFFD3395E04D6010120AC612DA
:0C0A34000A750520E52070DD051F80D943
:010A40002293
:0C0A6D008F90D2A1C2A2D2A37F0F7E0006
:100A7900E4FDFCC3ED9FEC9E5015E4FBFA0BBB00B3
:0F0A8900010ABA01F8BB13F50DBD00010C80E4A2
:010A9800223B
:10080000E709F608DFFA8046E709F208DFFA803EDA
:1008100088828C83E709F0A3DFFA8032E309F608C7
:10082000DFFA8078E309F208DFFA807088828C832F
:10083000E309F0A3DFFA806489828A83E0A3F608E3
:10084000DFFA805889828A83E0A3F208DFFA804CBD
:1008500080D280FA80C680D4806980F28033801094
:1008600080A680EA809A80A880DA80E280CA8033FD
:1008700089828A83ECFAE493A3C8C582C8CCC58375
:10088000CCF0A3C8C582C8CCC583CCDFE9DEE78045
:100890000D89828A83E493A3F608DFF9ECFAA9F0C4
:1008A000EDFB2289828A83ECFAE0A3C8C582C8CC1A
:1008B000C583CCF0A3C8C582C8CCC583CCDFEADE33
:1008C000E880DB89828A83E493A3F208DFF980CC95
:1008D00088F0EF60010E4E60C388F0ED2402B4048E
:1008E0000050B9F582EB2402B4040050AF23234535
:0608F00082239008507302
:1008F600BB010CE58229F582E5833AF583E02250B7
:1009060006E92582F8E622BBFE06E92582F8E22200
:0D091600E58229F582E5833AF583E493221A
:00000001FF
