:020000040000FA
:06000000EDEF00F012001C
:0A0006000100F80100006000000096
:0400100017000000D5
:0C001400D9CFE6FFE1CFD9FF020EE126B4
:10002000DE6ADD6A948E949CE10EAF6E040EB06EB3
:10003000240EAC6E900EAB6E080EB86E600EE66EBF
:10004000000EE66E3FD8E552E552DE6ADD6ADECF8D
:1000500002F0DDCF03F00A0E025C000E035811E23D
:100060009EAAFED7DECFE9FFDDCFEAFF770EE926B5
:10007000000EEA22AECFEFFFDF2A010E01E3DB2AFA
:10008000E6D70001816B770EE66E000EE66E1AD899
:10009000E552E552FFD7020EE15C02E2E16AE55269
:1000A000E16EE552E7CFD9FF1200D9CFE6FFE1CFED
:1000B000D9FFACA2FED7FE0EDB50AD6EE552E7CF06
:1000C000D9FF1200D9CFE6FFE1CFD9FFE652DF6AB0
:1000D000DF6ADF50E76EFD0EDBCFE9FFFE0EDBCF00
:1000E000EAFFE750E926000EEA22EF5012E0DF5067
:1000F000E76EFD0EDBCFE9FFFE0EDBCFEAFFE75038
:10010000E926000EEA22EF50E66ECFDFE552DF2A45
:0C011000E0D7E552E552E7CFD9FF12001E
:04011C00060EF66E67
:10012000000EF76E000EF86E00010900F550906F9A
:100130000900F550916F03E1906701D03DD00900AF
:10014000F5508B6F0900F5508C6F0900F5508D6FDD
:1001500009000900F550E96E0900F550EA6E090042
:1001600009000900F5508E6F0900F5508F6F0900E6
:100170000900F6CF92F0F7CF93F0F8CF94F08BC050
:10018000F6FF8CC0F7FF8DC0F8FF00018E5302E12F
:100190008F5307E00900F550EE6E8E07F8E28F07E7
:1001A000F9D792C0F6FF93C0F7FF94C0F8FF0001A3
:0A01B0009007000E915BBFD712000C
:0601BA00000EF36E00EEE2
:1001C00000F0080E01D81200EA6002D0EE6AFCD7F7
:0A01D000F350E9601200EE6AFCD75C
:0601DA0013EE00F023EE1D
:1001E00000F0F86A019C8EEC00F0FBEC00F00AECE9
:0601F00000F0FBD7120035
:0201F6001200F5
:0801F8000A0D504943204D6936
:0F02000063726F636F6E74726F6C6C6572200047
:00000001FF
