:020000040000FA
:0600000029EF01F01200DF
:020006000000F8
:08000800D9CFE6FFE1CFD9FFDB
:10001000040EE126020EDB6AF19E0F0EC16E938084
:10002000938294929494956A81B005D0010EF36EF8
:10003000020EF3CFDBFF81B204D0020EF36EF3CFDA
:10004000DBFF020EDB042AE182848282800EF36EE3
:10005000030EF3CFDBFFDE6ADD6ADECF00F0DDCF1B
:1000600001F0D890015004E6080E005C000E015823
:1000700015E2030EDB50836E320EE66EE66A46D85A
:10008000E552E552030EDB407F0BE76E030EE7CF30
:10009000DBFFDF2A010E01E3DB2ADFD7020EDB5094
:1000A000020829E182948292010EF36E030EF3CFCF
:1000B000DBFFDE6ADD6ADECF00F0DDCF01F0D89035
:1000C000015004E6080E005C000E015814E2030E15
:1000D000DB50836E320EE66EE66A18D8E552E552C2
:1000E000030EDB50020D030EF3CFDBFFDF2A010E00
:1000F00001E3DB2AE0D798D7040EE15C02E2E16A73
:10010000E552E16EE552E7CFD9FF1200D9CFE6FF05
:10011000E1CFD9FF040EE126DE6ADD6ADECF00F012
:10012000DDCF01F0FD0EDBCF02F0FE0EDBCF03F0E2
:1001300001500318E8AE02D0033404D00250005C32
:10014000035001581DE2020EDB6A030EDB6A020E49
:10015000DBCF00F0030EDBCF01F0D890015004E6B6
:10016000FB0E005C040E015806E2020EDB2A030EB1
:1001700001E3DB2AECD7DF2A010E01E3DB2ACED72D
:10018000040EE15C02E2E16AE552E16EE552E7CF7E
:04019000D9FF120081
:0C019400060EF66E000EF76E000EF86E00
:1001A00000010900F550656F0900F550666F03E125
:1001B000656701D03DD00900F550606F0900F5502A
:1001C000616F0900F550626F09000900F550E96E92
:1001D0000900F550EA6E090009000900F550636F47
:1001E0000900F550646F09000900F6CF67F0F7CFFA
:1001F00068F0F8CF69F060C0F6FF61C0F7FF62C039
:10020000F8FF0001635302E1645307E00900F55071
:10021000EE6E6307F8E26407F9D767C0F6FF68C0BF
:10022000F7FF69C0F8FF00016507000E665BBFD7E6
:020230001200BA
:0E023200000EF36E00EE00F0080E01D8120070
:10024000EA6002D0EE6AFCD7F350E9601200EE6A71
:02025000FCD7D9
:0E02520013EE00F023EE00F0F86A059CCAECF3
:0E02600000F037EC01F004EC00F0FBD71200C8
:02026E0012007C
:00000001FF
