:020000040000FA
:06000000E8EF00F0120021
:0A000600DACFE4FFE2CFDAFFE652A2
:100010006D0ED76E7B0ED66E8170F294E552E5CFF1
:10002000DAFF1100D9CFE6FFE1CFD9FF020EE126BA
:10003000F19E0F0EC16E93908190030ED56E6D0EE2
:10004000D76E7B0ED66EF294F28EF28AD58E956ABA
:10005000550E836EF40EE66E010EE66E16D8E5526E
:10006000E552AA0E836EF40EE66E010EE66E0DD812
:10007000E552E552EDD7020EE15C02E2E16AE5529B
:10008000E16EE552E7CFD9FF1200D9CFE6FFE1CF0D
:10009000D9FF040EE126DE6ADD6ADECF00F0DDCF97
:1000A00001F0FD0EDBCF02F0FE0EDBCF03F00150BE
:1000B0000318E8AE02D0033404D00250005C0350B1
:1000C00001581DE2020EDB6A030EDB6A020EDBCF73
:1000D00000F0030EDBCF01F0D890015004E6E80EEB
:1000E000005C030E015806E2020EDB2A030E01E358
:1000F000DB2AECD7DF2A010E01E3DB2ACED7040E80
:10010000E15C02E2E16AE552E16EE552E7CFD9FF38
:020110001200DB
:0E011200060EF66E100EF76E000EF86E00016F
:100120000900F550656F0900F550666F03E16567DA
:1001300001D03DD00900F550606F0900F550616FA6
:100140000900F550626F09000900F550E96E0900D9
:10015000F550EA6E090009000900F550636F0900C7
:10016000F550646F09000900F6CF67F0F7CF68F02B
:10017000F8CF69F060C0F6FF61C0F7FF62C0F8FF1A
:100180000001635302E1645307E00900F550EE6E8D
:100190006307F8E26407F9D767C0F6FF68C0F7FFA6
:1001A00069C0F8FF00016507000E665BBFD712004B
:1001B000000EF36E00EE00F0080E01D81200EA60A7
:1001C00002D0EE6AFCD7F350E9601200EE6AFCD769
:1001D00013EE00F023EE00F0F86A059C89EC00F0C5
:0C01E00007EC08F012EC00F0FBD7120056
:06100000E8EF00F0120011
:021006000000E8
:0610080003EF00F01200EE
:02100E001200CE
:021018001200C4
:00000001FF
