:020000040000FA
:060000008DEF01F012007B
:020006000000F8
:08000800D9CFE6FFE1CFD9FFDB
:10001000120EE126D9CFE9FFDACFEAFF200EEE6E0D
:10002000570EEE6E650EEE6E6C0EEE6E630EEE6E9D
:100030006F0EEE6E6D0EEE6E650EEE6EEE6AD950C0
:10004000090FE96EDACFEAFF200EEE6E740EEE6E47
:100050006F0EEE6E200EEE6E500EEE6E490EEE6ED0
:10006000430EEE6E540EEE6EEE6A0F0EC16E956A82
:10007000966A2BD8320EE66EE66AB5D8E552E5529E
:10008000D9CFE6FFDACFE6FF73D8E552E5520F0E7F
:10009000E66EE66AA8D8E552E552C00EE66E3ED896
:1000A000E552D950090FE66E000EDA20E66E60D8F0
:1000B000E552E552FFD7120EE15C02E2E16AE55239
:1000C000E16EE552E7CFD9FF1200380EE66E26D872
:1000D000E5520F0EE66EE66A86D8E552E552010E4D
:1000E000E66E1CD8E5520F0EE66EE66A7CD8E55245
:1000F000E5520E0EE66E12D8E5520F0EE66EE66A77
:1001000072D8E552E552800EE66E08D8E5520F0E21
:10011000E66EE66A68D8E552E5521200D9CFE6FFEE
:10012000E1CFD9FFFE0EDB50836E849084928484ED
:100130000F0EE66EE66A57D8E552E5528494E55212
:10014000E7CFD9FF1200D9CFE6FFE1CFD9FFFE0EEE
:10015000DB50836E8480849284840F0EE66EE66AA0
:1001600042D8E552E5528494E552E7CFD9FF120018
:10017000D9CFE6FFE1CFD9FF020EE126DE6ADD6AC4
:10018000FD0EDBCF00F0FE0EDBCF01F0DE500024D1
:10019000E96EDD500120EA6EEF501BE0FD0EDBCF73
:1001A00000F0FE0EDBCF01F0DE500024E96EDD50E2
:1001B0000120EA6EEF50E66EC6DFE5520F0EE66EE6
:1001C000E66A11D8E552E552DF2A010E01E3DB2A87
:1001D000D7D7020EE15C02E2E16AE552E16EE55238
:1001E000E7CFD9FF1200D9CFE6FFE1CFD9FF040E48
:1001F000E126DE6ADD6ADECF00F0DDCF01F0FD0E24
:10020000DBCF02F0FE0EDBCF03F00250005C0350A8
:1002100001581AE2020EDB6A030EDB6A020EDBCF24
:1002200000F0030EDBCF01F0C60E005C020E015899
:1002300006E2020EDB2A030E01E3DB2AEFD7DF2AF8
:10024000010E01E3DB2AD7D7040EE15C02E2E16A8A
:0C025000E552E16EE552E7CFD9FF120045
:04025C00060EF66E26
:10026000000EF76E000EF86E00010900F550656F84
:100270000900F550666F03E1656701D03DD00900C4
:10028000F550606F0900F550616F0900F550626F1D
:1002900009000900F550E96E0900F550EA6E090001
:1002A00009000900F550636F0900F550646F0900FB
:1002B0000900F6CF67F0F7CF68F0F8CF69F060C0BB
:1002C000F6FF61C0F7FF62C0F8FF0001635302E16F
:1002D000645307E00900F550EE6E6307F8E2640727
:1002E000F9D767C0F6FF68C0F7FF69C0F8FF0001E3
:0A02F0006507000E665BBFD7120021
:0602FA00000EF36E00EEA1
:1003000000F0080E01D81200EA6002D0EE6AFCD7B5
:0A031000F350E9601200EE6AFCD71A
:06031A0013EE00F023EEDB
:1003200000F0F86A059C2EEC01F09BEC01F004EC67
:0603300000F0FBD71200F3
:020336001200B3
:00000001FF
