:0300000002087380
:0C087300787FE4F6D8FD75810D020800C6
:10085300E4FDFCC3ED9FEC9E5015E4FBFA0BBB00DB
:0F086300010ABA03F8BBE8F50DBD00010C80E4F3
:010872002263
:10080000E4F50CF50DF508F509E4F50AF50B850D91
:10081000A07F507E00120853050DE50D7002050CF7
:10082000050BE50B7002050AC3940AE50A6480947F
:100830008040DB7406250DF50DE4350CF50C05093B
:10084000E50970020508C3940AE5086480948040B5
:03085000B880ADC0
:00000001FF
