:020000040000FA
:060000007AEF01F012008E
:020006000000F8
:08000800D9CFE6FFE1CFD9FFDB
:100010000D0EE126D9CFE9FFDACFEAFF500EEE6EE2
:10002000490EEE6E430EEE6E540EEE6EEE6AD95031
:10003000050FE96EDACFEAFF4D0EEE6E430EEE6E5F
:10004000200EEE6E4C0EEE6E610EEE6E620EEE6ED9
:10005000EE6A956A946A20D80F0EE66EE66AB0D80A
:10006000E552E552D9CF6AF0DACF6BF072D8C00E04
:10007000E66E45D8E5520001D950050F6A6FDACF18
:100080006BF067D80D0EE15C02E2E16AE552E16EC9
:10009000E552E7CFD9FF1200380EE66E30D8E552B0
:1000A0000F0EE66EE66A8CD8E552E552010EE66E5A
:1000B00026D8E5520F0EE66EE66A82D8E552E55282
:1000C000060EE66E1CD8E5520F0EE66EE66A78D88C
:1000D000E552E5520C0EE66E12D8E5520F0EE66EB2
:1000E000E66A6ED8E552E552800EE66E08D8E55213
:1000F0000F0EE66EE66A64D8E552E5521200D9CFDB
:10010000E6FFE1CFD9FFFE0EDB50836E829A829C20
:10011000828E0F0EE66EE66A53D8E552E552829E55
:10012000E552E7CFD9FF1200D9CFE6FFE1CFD9FFE3
:10013000FE0EDB50836E828A829C828E0F0EE66EEC
:10014000E66A3ED8E552E552829EE552E7CFD9FFF6
:100150001200D9CFE6FFE1CFD9FF020EE126DE6A19
:10016000DD6ADE5000016A250F01E96EDD500001F5
:100170006B210F01EA6EEF5019E0DE5000016A2595
:100180000F01E96EDD5000016B210F01EA6EEF50A7
:10019000E66ECADFE5520F0EE66EE66A11D8E5524A
:1001A000E552DF2A010E01E3DB2ADBD7020EE15C18
:1001B00002E2E16AE552E16EE552E7CFD9FF1200B3
:1001C000D9CFE6FFE1CFD9FF040EE126DE6ADD6A72
:1001D000DECF00F0DDCF01F0FD0EDBCF02F0FE0E32
:1001E000DBCF03F00250005C035001581AE2020E0C
:1001F000DB6A030EDB6A020EDBCF00F0030EDBCFFF
:1002000001F0130E005C010E015806E2020EDB2A1B
:10021000030E01E3DB2AEFD7DF2A010E01E3DB2A1D
:10022000D7D7040EE15C02E2E16AE552E16EE552E5
:06023000E7CFD9FF120028
:0A023600060EF66E000EF76E000EC5
:10024000F86E00010900F550656F0900F550666F02
:1002500003E1656701D03DD00900F550606F0900EA
:10026000F550616F0900F550626F09000900F55003
:10027000E96E0900F550EA6E090009000900F55021
:10028000636F0900F550646F09000900F6CF67F04D
:10029000F7CF68F0F8CF69F060C0F6FF61C0F7FFF4
:1002A00062C0F8FF0001635302E1645307E00900F4
:1002B000F550EE6E6307F8E26407F9D767C0F6FF02
:1002C00068C0F7FF69C0F8FF00016507000E665BB4
:0402D000BFD7120082
:0C02D400000EF36E00EE00F0080E01D8E2
:1002E0001200EA6002D0EE6AFCD7F350E960120017
:0402F000EE6AFCD7DF
:0C02F40013EE00F023EE00F0F86A059C09
:100300001BEC01F088EC01F004EC00F0FBD71200CC
:020310001200D9
:00000001FF
