:10080000750A00750B41120869120845E4F508F5F0
:1008100009120869120845850B90AF0BAE0A120841
:10082000927FC87E00120849050BE50B7002050A8D
:100830000509E50970020508C3941AE5089400400B
:01084000D0E7
:010841002294
:070842001208847F0F7E0005
:10084900E4FDFCC3ED9FEC9E5015E4FBFA0BBB00E5
:0F085900010ABA04F8BBB0F50DBD00010C80E434
:01086800226D
:0E0884008F90C2A0C2A1D2A2120845C2A22229
:100869007F381208427F011208427F0C1208427F2A
:0B087900841208847F0F7E00020849F3
:0E0892008F90D2A0C2A1D2A2120845C2A2220B
:030000000208A053
:0C08A000787FE4F6D8FD75810B0208009B
:00000001FF
