:030000000208896A
:0C088900787FE4F6D8FD75810B020800B2
:10080000750A00750BFF120865120841E4F508F53A
:1008100009120865120841AF0B8F9012089F7FC81C
:100820007E00120845E50B150B7002150A0509E557
:0C0830000970020508C3E508940140D5DA
:01083C002299
:100865007F381208951208417F0112089512084138
:100875007F0C1208951208417F841208957F0F7E20
:040885000002084520
:0A0895008F90C2A012083DC2A222FB
:0A089F008F90D2A012083DC2A222E1
:08083D00C2A1D2A27F0F7E00D0
:10084500E4FDFCC3ED9FEC9E5015E4FBFA0BBB00E9
:0F085500010ABA04F8BBFBF50DBD00010C80E4ED
:010864002271
:00000001FF
